:020000042000DA
:100000000098002091040020410900209B0400205A
:1000100000000000000000000000000000000000E0
:100020000000000000000000000000009D0400200F
:100030000000000000000000B5040020B70400200C
:10004000A51E0020053103000D310300153103000A
:10005000271F00208D310300A5310300433003002A
:10006000850C002081120020631F0020AD310300A9
:100070009F1500204B1B02004B1B02004B1B020074
:100080004B1B02004B1B02004B1B02002D0C0020DF
:10009000590C00206F0C0020F30B0020430C0020B3
:020000042000DA
:100160003200000067050020A5100020372E002077
:10017000000000000000000063800200BD8002005B
:10018000CB800200FB800200198102003581020051
:100190005D81020051680200370500200D0F00202C
:1001A0002D0F002000000000000000003F000000B4
:1001B000F48B002000040000740B080048010000CC
:1001C0006807080000040000C80C080020050000B3
:1001D000000000002000000048000000580000005F
:1001E0006800000004010000160100002801000062
:1001F0002E010000202A00008E2E000001000000C9
:10020000881300002F110020E9600200FD93020016
:100210009316002019280300A57402009D1A0020DF
:1002200003000000D5200200532E0020040000002F
:10023000D74902000F490200831D020063910200AA
:10024000B7910200BF910200078202007182020092
:1002500058490020AD8302009384020041850200CA
:1002600015860200378602005F860200758602004E
:10027000F9870200258902005D8A0200D38C020002
:10028000098D02000F900200438D0200278E0200AC
:10029000F98E0200478F0200998F0200D58F02006D
:1002A00049510200775102002F5202001000000055
:1002B00020030000803E000000000000000000005D
:020000042000DA
:1002C000504600030003983A6400F401B80B000C98
:1002D000B80B120030003000CD009A01120024004B
:1002E00030006400B0001800280012001200D0078F
:1002F0000000FFFF00000000000000000000000000
:100300001F000002434C4F56450000000000000053
:1003100000000000000000000000000000000000DD
:0403200000000000D9
:020000042000DA
:10034000FFFF010000C201000000000000000000EB
:100350000000F401010001070A0D0201060303A0D9
:10036000FF0000000000000000000000000000008E
:100370000000000000000000000009FF006052576C
:100380002D424C450000000000000000000000006D
:10039000000000000000000000004A506C75732D42
:1003A00078000000000000000000000000000000D5
:1003B000000000000000000000000000000000003D
:1003C000000000000000000000000000000000002D
:1003D0000000000000000000887766554411D00737
:0403E0000690640A15
:020000042000DA
:100440000348854603F0D8FE00480047C720020055
:100450000098002010B50D4988683E2290432E3048
:1004600088600021052000070180028A0F231B02FB
:100470001A4302820122D204032308461B03841874
:100480002160001D9842FADB62B610BD00330050B7
:100490000A4880470A480047FEE7FEE70420714605
:1004A000084203D0EFF3098006490847EFF30880BC
:1004B00004490847FEE7FEE7FEE700005504002078
:1004C00041040020DF04002002890889C749101A6E
:1004D00080B2884201D901207047002070478169AD
:1004E0002039897F052904D2C14A89005158816188
:1004F0007047FEE7C048BF490161C0494161C0493A
:100500008161C049C161C0490162C0494162C049BD
:100510008162C049C162C0490163C0494163C049A9
:1005200040040860BF49CA691202120ACA61BC4984
:1005300080390860704710B5BB480068AA2810D001
:100540009720BA4A0021116003F068FEC83080B2DB
:1005500003F06AFE01208007016B4900490801632E
:1005600010BD3E20EDE71CB5B14801240470B14830
:10057000C821018000214180AF4E0825758003F01D
:1005800059FE04F039F900F00FFBAC480178017016
:10059000AB4801780170012003F052FE2720610270
:1005A000000103F053FE01F08DFB00F0E5FC00F0CC
:1005B000C7FBA44F388940094001388138890F2191
:1005C000890288437114401838819F487882262018
:1005D000B8820720F8829D4838837C8378881E2162
:1005E000884314307880042000F0F9F8072000F0E8
:1005F000F6F80A2000F0F3F8062000F0F0F80B20DF
:1006000000F0EDF8012000F0EAF8022000F0E7F831
:10061000002000F0E4F88E48006803F01DFEA007FB
:10062000016882151143016000F020F97E480068DE
:10063000AA2805D1142000F0F8FB142000F003FCD8
:1006400002F0C8FDFFF777FFA22005242407E0820F
:100650007C484188E0229143A03141807D4F386F32
:10066000007800280BD0002003F0FCFD03F000FE12
:10067000022806D003F0FCFD012802D009E0012089
:10068000F2E73580A08A800603D5608A802108437E
:1006900060826849C8200880758002260425208968
:1006A000000622D501208007006B00041DD403F052
:1006B000E5FDC00719D1042003F0E6FD019003F029
:1006C000E9FD0198002810D00020019056480068EC
:1006D000AA2802D1142000F0B6FB042101A803F0DF
:1006E000DFFD002801D000F0D7FB72B601F012FB4D
:1006F00069460870042806D002280CD003280AD0C6
:10070000012866D066E054480078012802D0032012
:10071000087000E00E70208A28432082F8690128C2
:10072000087811D903284BD103F0C0FD002847D029
:1007300003F0C2FD002843D0032003F0C3FD0028CE
:100740003ED04648067008E0032839D103F0BAFDD0
:10075000002835D0414901200870324801692943F9
:100760000161618A202291436182218A3143218281
:10077000694609780229618A24D0294361827F2150
:100780002288890180231A4322800022521CD2B27F
:100790000A2AFBD3628A10231A436282304A491E16
:1007A0005161218880229143218026494A88FF2374
:1007B00001339A434A8030BF0169A943016109E0CE
:1007C0006846BFE729436182618A102291436182B2
:1007D000EBE730BF62B6C820164908805FE7C10664
:1007E000C90E012088401F4908607047307500001D
:1007F00044490020942703000084004000DF8968FA
:1008000028A30200704701DF1CCA0200F8BD02DF06
:1008100040CB0200F5E703DF84D4020004DF89B097
:1008200080E100E000ED00E00C7F00208C03080078
:10083000007F00200031005000330050000008000D
:10084000202A0800200000504E02000077770000A8
:1008500004900020E001002054020800C4060800B3
:100860000080004080E200E07047000031480178DD
:10087000002902D08021417070472F490020087064
:100880002E49C87070472B480178002902D0812179
:10089000417070472849012008702849C870704786
:1008A00024480178002902D08221417070472249F2
:1008B0000220087021490120C87070471D488178C6
:1008C000002904D0491E0906090E817017D142780B
:1008D0000021002A04D09207920F0270417004E0B8
:1008E0000278002A01D0521E02701206120E017008
:1008F00005D0012A02D0022A01D1D1E7C3E770470F
:1009000010B50C4CA078401CA0702078002805D1B0
:1009100003F0AEFC421CFFF7A9FF227010BD054991
:100920000120C870704703490020C8707047014813
:10093000C0787047017F002054020800C6060800F6
:1009400005200007018A042211430182018A022244
:10095000114301820189402211430181074A01218B
:100960001160074A08211180418A80221143418287
:10097000808A800600D500BEFEE7000080E200E02D
:100980000033005070B5E2480022C16DD243002907
:1009900001D0114600E00121CB00C165DD490C68A2
:1009A0004D680C602B434B604368002B01D013460D
:1009B00000E001234360DC17DB180D6864414E68DA
:1009C0002B4334430B604C608368002B01D01446EA
:1009D00000E00124E317A50F9B002B4384600D6802
:1009E000A4004E682C4333430C604B60036D002B16
:1009F00001D0134600E0012303650C684D680C60CC
:100A00002B434B60836D002B01D0134600E0012384
:100A100083650C689B004D680C602B434B60036939
:100A2000002B01D0144600E00124E317250F1B0121
:100A30002B4304610D6824014E682C4333430C6042
:100A40004B604369002B01D0144600E00124E317FA
:100A5000E50E5B012B4344610D6864014E682C4335
:100A600033430C604B60036B002B01D0144600E055
:100A70000124E317A50B9B042B4304630D68A40416
:100A80004E682C4333430C604B60436B002B00D10A
:100A900001224263D017530BC00418430C68D204E0
:100AA0004B68224318430A60486070BD38B5002483
:100AB000FF222346013203210220009403F0FAFDB5
:100AC00000220F2301211046009403F0F3FD0325BB
:100AD00000232D022A4602211846009403F0EAFD65
:100AE00000232A4619460220009403F0E3FD022168
:100AF00000232A460846009403F0DCFD02232A4620
:100B000004210020009403F0D5FD002201230521DB
:100B10001046009403F0CEFD012409232A46022149
:100B20002046009403F0C6FD0A232A460321012033
:100B3000009403F0BFFD38BD10B5012003F0C2FEE4
:100B4000032003F0B3FE00221146012000F080FCD8
:100B5000002201201146400200F092FC00F095FCBA
:100B600003F0BCFE10BD10B5162000F0C8F8FF2041
:100B70006949013088816948018A0122D202114302
:100B80000182018A0822114301821221C180644935
:100B90000868FF22120490430122D2051043086026
:100BA000162000F0A5F810BD10B505242407208AF2
:100BB000022188432082A08A0007FCD55948418839
:100BC000FF22013211434180FFF794FCFFF76EFFD3
:100BD0000221084602F0F4FD02F04AFF608A20215B
:100BE00008436082FFF7BFFFFFF7A6FF00F06EFC2F
:100BF00010BD38B5162000F082F848490820C88199
:100C0000012000230322009012021946022003F063
:100C100051FD454C2078411C217002F01DFF2078C9
:100C200003F0F0F9162000F063F838BD10B513207A
:100C300000F065F839490120C881132000F058F808
:100C400010BD10B5172000F05AF834491020C881A3
:100C5000172000F04DF810BD10B5142000F04FF82B
:100C60002E490220C881142000F042F810BD10B5B2
:100C7000152000F044F829490420C881152000F00F
:100C800037F810BDF8B5294801240480264E284FB6
:100C90007178002500290BD00322022100231202C3
:100CA0000846009503F006FD3878012815D01CE0B1
:100CB00003220221002312020846009403F0FAFCEA
:100CC0003878012807D10023032212021946022096
:100CD000009503F0EFFC747008E000230322120279
:100CE00019460220009403F0E5FC7570B570F8BD5C
:100CF000C106C90E012088400E4908607047C10630
:100D0000C90E012088400B498031086070470000FF
:100D100030900020289000204030005000140050F7
:100D200014E400E020000050209000200034005027
:100D3000D190002000E100E08449AA20486070477B
:100D400070B5052109070889302290430881088978
:100D5000802210430881088980088000401C088197
:100D600008890823184308817948048814430480BB
:100D70004C8A9C434C820D89402425430D810D8A69
:100D80000426B5430D828D8AAD07FCD56F4EAA258A
:100D900075608588F026B543B03585808588032643
:100DA0003602B543FF350135858085882D092D0133
:100DB000858085880126B602354385808588760042
:100DC0003543858085887600354385804D8A9D43EF
:100DD0004D820388934303800A89A2430A81408994
:100DE000800503D55A49052060318880012080079D
:100DF0000168821591430160564801683F22520202
:100E00009143421489180160016802031143016093
:100E100070BD0321504809028181082242800021CF
:100E2000491C9629FCD3828070474C494880088829
:100E30000322104308800888042210430880434995
:100E400001200870E5E71CB5404C2178002922D02C
:100E500042490A885207FCD4CA88009289880191C5
:100E60001104019A891800913D494843009903F003
:100E70002FFA0090002020700098A060009803F0E6
:100E80003FF90146374803F0F1F80A2103F02CF945
:100E900003F03DF9E0601CBD10B533490120C86383
:100EA000C86B0028FCD101208007C1692F48026867
:100EB000914201D20022026019238A1ADB019A4270
:100EC00012D3016003F00AFA294A1188884201D935
:100ED000411A00E0091A89B2182905D310800120AF
:100EE00003F002FA03F006FA10BD08B51749896845
:100EF0004843204903F0ECF9009008BD08B51349B8
:100F00000090C9684843800A009008BD08B50F49A1
:100F10004968002903D0AA2904D0009808BD03F02D
:100F2000EFF901E0FFF7E1FF009008BD08B50749C0
:100F30004968002903D0AA2904D0009808BD03F00D
:100F40006DF901E0FFF7DAFF009008BD087F00208F
:100F500020000050000200402030005000160050D9
:100F60000024F40000247449C00000407C04080000
:100F70007804080040420F0030B5964A9649D005E3
:100F8000048880231C430480944C65892D0701D478
:100F9000521EFAD2924C01222260924C0A88228080
:100FA000914A4988118001889943018030BD002011
:100FB00070477047704770470020704701218907CC
:100FC000086B0722104308637047704710B58849C3
:100FD0008648086087494C200880864B864A203B1B
:100FE0001A82874985484880874886490180854913
:100FF0001931418022214181812189000182834967
:101000004182834901838149113141837E4981486D
:101010002031888041218048090181807F49C18039
:101020007E4C1034C48101824182891C8182611FFF
:10103000C182FF2146310183794941837949592091
:1010400008807848784C2030048043244480774CD2
:101050004C82D5218180FF21D331018174494181A6
:1010600074498181754974480880624874496038C0
:101070004180C18810242143C1806B490A39018114
:101080005C4C7049403C61805A820821418156483D
:10109000644900884039088252486B4900880880BA
:1010A00010BD704700B58BB0684A4262684A8262E0
:1010B000684A4261684AC262684A0260684A0262DB
:1010C000684A4260684AC261494A48480021106043
:1010D00047484038026B03129A430263426B1F2356
:1010E0001B049A4303231B04D21842635F4802681F
:1010F000C3129A430260026803139A43026068466F
:101100004154491CC9B22829FAD30146282258481B
:1011100003F0FCF8FFF75AFF03F0E0F855490880A8
:10112000002003F0E1F803F0E5F80BB000BD10B5C6
:101130002F4A0F212D48090210602D484038426B7C
:101140001F231B049A4303231B04D2184263000687
:101150000268D208D20002600520000702899208C6
:101160009200521C0281028908231A430281028ADA
:101170000A4302821948018949094901018101890B
:101180000F22920291434214891801812349203190
:101190004182262181820721C1822749DC390183CE
:1011A0000121418341881E22914314314180FFF780
:1011B0000DFF3148006F0078002808D02F480088C4
:1011C0000C496039C880002003F04CF810BD0120A4
:1011D000FAE70000A0860100087F0400200000500C
:1011E00000800040560208004A0308004C055407DE
:1011F00080000040602C00507F7F0000AC29000080
:1012000000220050090900000024005022040000C0
:1012100030D00000EE110000002500502E0200002A
:1012200044200000402800500D95000002420000BC
:10123000E4DC00001092000053780000002A005007
:101240008B1000009DD5000000260050AF0F00203D
:10125000B30F0020B90F0020BD0F0020B50F0020F4
:10126000CB0F0020B70F0020A31000200002004089
:101270002000080078040800E00100205204080063
:1012800005200007018830229143018001888908E8
:10129000890001808088C0060BD522480121818009
:1012A00001888022914301801F480068002800D0F7
:1012B0000047704770B505242407A58810263543DC
:1012C000A580184C00252581D2B26280C2B262810D
:1012D000CAB262828204920EA2818A04920EA28213
:1012E0008202120EE2818A02120EE282000E208237
:1012F000080E20830120A0800C4940020860990656
:10130000890E803121800A490A68FF231B029A4313
:1013100043011A430A600749086070BD024908602A
:101320007047000000010050187F002080E200E0BC
:1013300008E400E000E100E02A4910B5884209D342
:1013400049424018642148434721C90002F0E4FFA4
:10135000C0B210BD002010BD10B504462248844222
:1013600009D340422018642148431F49F83902F04C
:10137000D3FFC0B200E000201A49E9318C4200D30B
:10138000642010BD70B50121890205464E0030462B
:1013900000F02EF8012000F038F800F044F8044680
:1013A0000021304600F024F8012000F02EF800F073
:1013B0003AF8001984B200F032F80C4920090A7892
:1013C0000001002A01D1FF220A70012D03D0022D55
:1013D00004D0002070BDFFF7AFFF70BDFFF7BCFF6A
:1013E00070BD000071040000260300001C7F002077
:1013F00008430121890302460A4312490A80124A1E
:10140000104308800B20488070470E490A880F233C
:101410009B0100079A43800D02430A8070470949E7
:1014200000200880704707480849028802231A43B1
:101430000280491E02D302889207FAD4002101815A
:10144000408970470015005001400000A08601004F
:1014500030B51B4B1C680825C907AC43090F0C436A
:101460001C6019680424D207A143520F114319606C
:1014700019680222C0079143800F0143196030BDF3
:10148000104B58809980DA807047FF200E49013058
:1014900008607047FF200C490130803108607047B8
:1014A00070B5054614460E46012003F01FFA284683
:1014B00003F030FA304603F039FA0248C48170BDB7
:1014C000003400500034005000E100E00520000727
:1014D000828880210A4382803A488181002181806C
:1014E0000921018003218181028A40218A430282ED
:1014F0000122028183881343838033480268120AE1
:1015000012020A43026088013049086070472D4882
:10151000818AC907FCD00088C0B2704729498A8AED
:101520009206FCD50880704700B5034602E0FFF73D
:10153000F5FF5B1C18780028F9D100BD03460006B2
:1015400000B5000F0A2801D2302100E03721081829
:10155000FFF7E4FF1807000F0A2801D2302100E04E
:1015600037210818FFF7DAFF00BD10B50446000A5E
:10157000FFF7E4FFE0B2FFF7E1FF10BD10B504464E
:10158000000EFFF7DBFF2002000EFFF7D7FF20045D
:10159000000EFFF7D3FFE0B2FFF7D0FF10BD094800
:1015A00001890907090F04290BD100880849C0B235
:1015B0000870312803D0322803D106A0B4E70BA06D
:1015C000FCE77047001000500CE400E000E100E090
:1015D000D09000206F70656E207468652079656C0E
:1015E0006C6F77204C4544210A0000006F70656ED7
:1015F0002074686520626C7565204C4544210A00A2
:1016000070B5EFF31085012080F31088264802F0B2
:1016100089FE0446002D1DD0012080F31088002C87
:1016200023D020462038C08B204988421DD16189B3
:10163000208902F07DFE05000ED021461031A389DD
:1016400062892089A847002806D001280DD00228E9
:101650000BD105E00020E0E7204602F06FFE04E039
:10166000114821460C3002F06FFEEFF31084012088
:1016700080F310880C480068002802D1012002F095
:1016800069FE002C03D0012080F3108870BD00207B
:10169000FAE710B5BC21064802F062FE05490120B8
:1016A00002F064FE10BD0000A805080038830000A9
:1016B000040608000116002070B516460D461046B7
:1016C00002F05AFE002869D0340A304602F054FE77
:1016D000012812D0A87A1E2811D029460A310E28D6
:1016E00045D019DC801E030002F04CFE0B25582962
:1016F000582D58315839583D5800022070BD314698
:10170000274802F045FE0021204602F047FE022154
:10171000304602F049FE41E018283CD006DC102893
:1017200019D012282BD0162838D130E0522822D0D8
:10173000D22833D127E0204602F03CFE2EE020469E
:1017400002F03EFE2AE0204602F040FE26E020465F
:1017500002F042FE22E0204602F044FE1EE0204657
:1017600002F046FE1AE0204602F048FE16E020464F
:1017700002F04AFE12E0204602F04CFE0EE0204647
:1017800002F04EFE0AE0204602F050FE06E020463F
:1017900002F052FE02E0204602F054FE002070BD2E
:1017A00001280000F3B581B001980C460102CA1D62
:1017B0000E310223344802F04BFE047001990546B5
:1017C000022732488E00002C06D0042C16D0062C9E
:1017D00010D0072C3FD108E0815905224968897C47
:1017E000114069708059C77335E0084602F036FE33
:1017F000687030E080590F21C1732CE00446805995
:101800004068417C012902D1007E01280FD0019857
:1018100002F02AFE01210028A0590BD04268D07D99
:1018200000281CD001281AD004280DD00FE0002079
:1018300068700DE04068C27D022A01D0042A06D1FA
:10184000007C02280BD102E0107C022807D06F70C8
:10185000A1590320C873284602F00CFEFEBD697032
:10186000F6E701460A780120042A01D900207047D2
:101870004A78002A01D0012AF8D10A79082AF5D835
:1018800049790829F2D87047021C00002805080091
:10189000FFB589B00D4600206946059008720B9887
:1018A000000A009002F0E0FD07460B9802F064FD8C
:1018B00000287DD00B982978000A8400764E0129F3
:1018C0005ED0042904D0062943D0072963D120E043
:1018D000687800281BD0305910224068A91C02F0FB
:1018E00015FD002F06D03159C87B032807D00428E6
:1018F00008D050E03059C07B032803D04BE00B20C8
:10190000C87348E00521009802F0BAFD43E00120C9
:10191000B6E03059C07B0E283DD1009802F09EFD04
:10192000002103E02A18401C9170C0B21028F9D39E
:10193000688A69460883294606A8082214310230BD
:1019400002F0E4FC06ABAA1C3946009802F09EFDAA
:1019500021E03059C07B0F281DD1AA1C0A21009814
:1019600002F09AFD002F04D03946009802F09AFD4B
:1019700011E000231A463946009802F099FD0AE06A
:10198000012F08D10B9802F0F7FC01281CD0002889
:1019900001D0022005906846007A002811D002AAE2
:1019A0000521009802F078FD6846027A602000E088
:1019B00007E002436846027201233946009802F0AC
:1019C00077FD05980DB0F0BD3059C07B0228E2D1FB
:1019D0006878002851D002210B9802F0E5FC3059BC
:1019E00007224068A91C173002F090FCE878002814
:1019F00004D130594068407C01283AD0009802F068
:101A00005DFD002837D0297A009802F05DFD00289E
:101A100033D0009802F05EFD0121009802F060FDD5
:101A200000282CD030594068417E00292BD0042951
:101A300029D0C17E027D1140C17630594068017FB6
:101A4000427D114001776846007A0028A7D13059BD
:101A5000022142680098173202F01EFD3059416899
:101A60004031897B002913D004210098FFF79AFEAA
:101A700091E7022004E0062002E0082000E00320B5
:101A8000694608728BE70021C17630594068D9E772
:101A90000B21C1737FE7000028050800F8B50C464C
:101AA0009549164609680125002702228B1C31281A
:101AB00073D012DC0C2874D008DC012821D0022855
:101AC00040D007284FD00B2869D156E010287FD08E
:101AD000112876D01228F7D18EE00123412871D049
:101AE00008DC32286FD035286ED036286DD04028DB
:101AF000EAD1B3E0422869D0432868D04428E3D132
:101B0000D1E006227D497E4802F0F0FC002808D092
:101B100006227B49304602F0F9FB062020700020A7
:101B2000F8BD754801680878C00738D020780628C5
:101B300001D22770C4E006223046983102F0E6FB5D
:101B400006200EE00A786C48920728D522783E2AB3
:101B5000EFD305464A7E30465A3102F0D7FB28685B
:101B6000407E2070A9E00878400718D52078022828
:101B7000DFD3887C3070587C7AE00A785E481207A0
:101B80000DD52278202AD4D30546CA7D30461A3195
:101B900002F0BCFB2868C07DE3E736E001E079E0B5
:101BA00016E00A785448D20674D52278202AC0D389
:101BB00005460A7E3046983102F0A8FB2868007E70
:101BC000CFE70FE056E02AE036E03DE05AE062E081
:101BD0000878800672D520780428AAD304223046DB
:101BE000091D25E00878400668D52078002867D0D0
:101BF000087D08E0227060E0087800065ED5207855
:101C000000285DD0487D3070F4E70888C00555D5C0
:101C1000207804288DD3042230460C3108E008884F
:101C200080054BD52078042883D304223046083120
:101C300002F06CFB042094E7088840053ED520782C
:101C400000283DD0887D36E00888000536D520780C
:101C500002288DD3087C3070487C09E00888C004D5
:101C60002CD5207802288ED38231087F3070487FAF
:101C70007070BFE70888800420D5207800281FD026
:101C8000A03117E00888400418D52078002817D024
:101C9000A1310FE012E0088800040FD52078002859
:101CA0000ED0A23106E00868C00307D520780028CE
:101CB00006D0A33108783070237000252846F8BD7F
:101CC0000425FBE770B50F480F49C405228880251D
:101CD0002A4322800D4A53891B0701D4401EFAD2A1
:101CE0000B4A012010600622054802F00FFB2088F5
:101CF000A843208070BD0000C0060800383E0300E5
:101D00001D7F0020A0860100D47F04002000005029
:101D100000800040F8B5574F0026786D0090FEF720
:101D200006FE0022544D002802D12879022800D155
:101D30000092524B01241878A40700280BD0504879
:101D40000121C163C16B0029FCD1E0691921C901DE
:101D500088426ED31A7002F0CFFB002869D0E87871
:101D60000126002865D005200007808AC00701D021
:101D700004265EE002F082FA00285AD14148006849
:101D80003F2804D12879002801D1386D0090A97826
:101D9000684602F0B7FB00284BD0A978684602F0ED
:101DA0007FFA002845D002F0B3FB002841D0364826
:101DB00004260168AA2917D09720E26B920A9202A2
:101DC000521CE263E26B314B80021A400243E26331
:101DD000E06B0122C002C00A92058018E06300296E
:101DE00004D0AA2927D00FE03E20E6E7009864211E
:101DF000C00202F06DFA002800D0401E29790029A7
:101E000000D0012102F08AFB2148C06A8047206B84
:101E10000004C00FFBD002F087FB02F08BFB1D48D3
:101E20000168C905FCD5052000070189802291437E
:101E300001813046F8BD009800F001F8DEE7F8B502
:101E400006461548006802F07BFB144A144B02F06A
:101E50007DFB05460C46304602F072FB2A462346BF
:101E600002F074FB02F068F90090002801D0401ED7
:101E70000090F8BD60020020C6060800007F002028
:101E8000C0000040600100200C7F0020FF03E0FF45
:101E90001C07080000020040107F00207B14AE47A2
:101EA000E17A443F38B500200524240700902188BA
:101EB000302001432180218803221143218002E048
:101EC00000BF00BF00BFA18A0906F9D56189890852
:101ED0008900618130494A88520852004A8021882D
:101EE000814321802088800880002080FEF75CFEEE
:101EF0002089802108432081208A04218843208270
:101F0000A08A8007FCD5254841050268D20202D488
:101F10000A69520702D4009A002AF6D002F01CFB8C
:101F200002F020FB38BD10B502F022FB1C480189ED
:101F30004908490001811B4800683F2801D102F08F
:101F40001DFB01208007816904221143816102F099
:101F50001BFB15480068AA2802D11420FEF765FF74
:101F600010BD70B51148008885060C48AD0E446858
:101F70000C488030006F0078002802D1284602F01B
:101F800009FB0B480089C00504D5200602D5284668
:101F900002F006FB70BD000020000050000200406F
:101FA00000330050600100200C7F00200020005012
:101FB000002C005010B50821054802F0F7FA054939
:101FC000152002F0F9FA0021152002F0EDF910BDFC
:101FD000247F002078490020FEB50020C0430290F5
:101FE0000888A54C1E46E080A4480092019000237A
:101FF000192202A9A01D02F0E5FA0546E088002199
:1020000002F0E6FA002D03D10121152002F0CCF9EF
:102010000123152231469A4802F01AFA057002F09F
:1020200029FA0020FEBD7CB500206D46924C288028
:1020300023806280488802F0D1FA2071E0886A46E5
:10204000801C80B2012102F0CFFAE0886A46401D70
:1020500080B2012102F0C8FAE0886A46093080B2F5
:10206000022102F0C1FAE0886A460D3080B20221F6
:1020700002F0BAFAE0886A46113080B2022102F01A
:10208000B3FA0220FFF77EF92871E08801AA801CCC
:1020900080B2012102F0A8FAE088012102F098FA4A
:1020A0000221152002F080F900207CBD10B501212D
:1020B000152002F079F9002010BDF8B56E4E0F46DC
:1020C0000024F088A500083561004019CA1980B2C3
:1020D000022102F089FAF0880021401982B2664894
:1020E00000F073FE641C032CEBDB0020F8BDF0B5A0
:1020F0000C4616468A88234687B0498820880833CC
:1021000002F078FA5C4D2388E9880022581A0D28DD
:1021100008D008DC02280FD008287AD0092878D007
:102120000C2877D196E0102875D0112873D0142888
:102130003ED017286ED13BE0207A012802D9514ABF
:10214000801E1070891C88B204AA694602F058FAF1
:1021500004982988002825D0494808233246001FC2
:1021600002F076F906460024E988A0000830081835
:1021700080B201AA694602F043FA01986100007832
:10218000641C7052032CEFDBE88802AA401D80B269
:10219000694602F035FA02980078B071304602F0D4
:1021A00069F954E036481522C01E02F02FFA4EE0BD
:1021B000207AFF281ED16088012804D9617A01297C
:1021C00001D9314A1170022805D9A17A012902D911
:1021D0002E4A891E1170032805D9E17A012902D9F6
:1021E0002B4A891E1170042804D9207B012801D9AB
:1021F000284908702248298812231522801E02F0DF
:1022000027F90646E98820881431884204D001273E
:1022100003E014E018E024E0002702AA01A902F07C
:10222000EFF968468288701C029902F06FF83770E7
:10223000304602F01FF921882879002205E0207A33
:10224000012815D91449087012E002F0E5F90020C0
:1022500007B0F0BD207A01280AD9104905E00A70BC
:1022600006E0207A012803D90D49FF280870F6D02E
:10227000287900221946E8E7247F00200C4A002034
:1022800007540000B47F0020B87F0020B97F0020F1
:10229000BA7F0020BB7F0020B57F0020B67F0020E2
:1022A000B77F002010B50E212B4802F07FF92B4993
:1022B000202002F081F90021202002F075F810BDE5
:1022C00070B5254D0646298804232022244802F0B3
:1022D000BFF80446287902F0A5F92080A6702046B0
:1022E00002F0C8F870BD7CB504461B4E1C4831880E
:1022F00008232022C01E02F0ABF80480054600240B
:102300001FE03019817A890708D56200012152192E
:102310005180817AFD221140817203E0002061002A
:102320004919488060008019C0886A46801C80B2C4
:1023300001A902F065F9009829190078641C8871D8
:10234000E4B2307BA042DCD8284602F093F80121A9
:10235000202002F029F87CBD2E7F0020C44B0020F5
:1023600006800000FFB587B00F4607206946087257
:10237000BD4C2020608038780025022856D8207374
:10238000002646E0B8194078A11905918872012805
:1023900005D16946087A0821084369460872207BFE
:1023A000012805D96946087A102108436946087250
:1023B000099800907000AD49001901910390002325
:1023C000052202A9801D02F0FDF805001CD103982A
:1023D0000021C08802F0FCF805460598807A0128A3
:1023E00012D1122069460874039804ABC0880122F8
:1023F000401C80B2002102F01BF903989C49C08860
:10240000801C80B202F01AF907206946761C087217
:10241000F6B23878B04202D9002DB3D007E0002DD3
:1024200005D10121202001F0BFFF00E0812501231B
:10243000202290480A9902F00BF8057002F01AF871
:1024400000200BB0F0BDF0B585B00D460020694608
:10245000854E08813380288802F0C0F83071FF284B
:1024600001D0002452E0834B89215B1C9A1C7E48DA
:1024700000F095FC52E061007B482A190E18039287
:102480000491F0880327801C80B201210A3202F0F7
:10249000ABF875480019817A012920D1E978042721
:1024A000012915D104996B4649198A881A818988AE
:1024B00001290DD1032181720398017A807A81422A
:1024C00006D0F0880021801C82B2674800F07DFCB5
:1024D000F08802AAC01C80B2022102F085F862488E
:1024E000007B01280CD9E000411968460C3100F04E
:1024F00047FCF0886A46C01980B2072102F074F8E0
:10250000A978F08802F064F8641CE4B25648017BB4
:10251000A142B0D80221202001F046FF002005B0E2
:10252000F0BD70B5504D0C46287902F07BF821883B
:10253000884221D1A078297B88421DD2E178642984
:102540001AD840004019C088E21C801C80B20121CA
:1025500002F04AF8A07829460A31415C890709D57A
:1025600040004019C0880021801C82B2284600F03B
:102570002CFC04E08A2000E08120FFF7A1FE00206F
:1025800070BDF8B50F463849802500200A7B09E068
:1025900044006118C9883B88C91C8B4200D10025C2
:1025A000401CC0B23049824201D9802DF0D0401E7B
:1025B000C6B2002D0FD1787A397A000208436946F5
:1025C00008800AD0012808D080252748398800795A
:1025D0002A4602F021F80020F8BD234C70000019B3
:1025E000C0880A46C01C80B2022101F0FDFF684687
:1025F000008801281FD0A019817AFD221140817224
:10260000F8790028E1D018480623018819482022CB
:10261000801D01F01DFF04461348007902F002F806
:10262000208069460988A170090AE1702671204658
:1026300001F020FFC9E7A019817A02221143DEE7E9
:1026400010B50878122802D14878FFF739FE00202B
:1026500010BD10B5044A180A1279904202D10888B8
:10266000FFF741FE002010BD2E7F0020804B002090
:10267000010200000180000010B51221244801F081
:1026800095FF24491C2001F097FF00211C2001F038
:102690008BFE10BD30B503460120002103241A46ED
:1026A000CA40D20704D04D0022466D1CAA401043F8
:1026B000491CC9B20929F2D330BD024600201229B3
:1026C00001D98D207047062A06D0072A07D0082A8C
:1026D000F8D10729F5D170470829F2D170470629AA
:1026E000EFD3704770B50A4C0546218802231C229F
:1026F000094801F0ADFE058001F0BCFEE088002134
:1027000001F066FF01211C2001F04EFE70BD0000AB
:102710003E7F0020384D002004700000FEB53B4E87
:102720001C2070801D46174634460888FFF7B2FF0C
:1027300002903748334601900833132202A90097CC
:10274000A01D01F03FFF040008D1F088002101F036
:102750003FFF044601211C2001F026FE01231C221C
:1027600029462C4801F074FE047001F083FE00201D
:10277000FEBD70B50C4625490B802078082814D87A
:10278000CA880831415C51188DB2822D0BD0617816
:10279000FFF793FF010009D16D1C6178A8B2A21C5C
:1027A00001F022FF08E0822100E08121194B174847
:1027B0005B1CDA1C00F0F3FA002070BD70B51D46FA
:1027C0000C46088801F00AFF104AFF281071158096
:1027D00009D0A178D08801F0FBFE02211C2001F075
:1027E000E3FD002070BD0B4B89219B1C9A1C074800
:1027F00000F0D5FAF5E710B5044A180A12799042AC
:1028000002D10888FFF76EFF002010BD3E7F002038
:10281000244C00200170000010B50A21394801F055
:10282000C5FE3949182001F0C7FE0021182001F02B
:10283000BBFD10BD70B5334D064629880423182210
:10284000324801F005FE0446287901F0EBFE2080B5
:10285000A670204601F00EFE70BD70B50A780270B9
:102860000A780023D20705D04C894470240A84706A
:10287000032402E08A7A427002240A78120705D5FE
:1028800002198D8915702D0A5570A41C0A78D2067C
:102890000BD40FE005195A00521852882A70120AF8
:1028A000A41C5B1C6A70E4B2DBB24A789A4201D97C
:1028B000042BEFD30D2C04D20D21091B001901F0BC
:1028C00075FE204670BD70B50E4C0546E0880021AF
:1028D00001F07EFE0D48218804231822C01E01F05D
:1028E000B7FD0580217A490705D501214180217A6C
:1028F000FB221140217201F0BDFD0121182001F0E1
:1029000053FD70BD527F0020FC4D0020046000008C
:10291000FEB51E460F206B461872814C1820608051
:1029200008782072C10701D03F211972800703D5B2
:10293000187AC021084318727A4800920190002347
:10294000082202A9A01D01F03DFE0546E0880021F5
:1029500001F03EFE002D03D10121182001F024FDDD
:10296000012318223146704801F072FD057001F014
:1029700081FD0020FEBD38B50C4600206946684D3B
:1029800008802B80208801F029FE2871FF2803D0C1
:10299000E078012808D010E003235B039A1C89210A
:1029A0005F4800F0FCF921E0A08869460880012812
:1029B00003D1287A042108432872E8886A46C01C9B
:1029C00080B2022101F010FE287AC00706D0E88804
:1029D000A21D401D80B2012101F006FEA178E88809
:1029E00001F0F6FD0221182001F0DEFC002038BDC8
:1029F0007FB54B4D0C46287901F014FE21888842A2
:102A00001AD1E078042817D8A11C6846FFF725FFE3
:102A10000146287A40070DD5E8886A46801C80B2B6
:102A200001F0E2FDE8880021801C82B2284600F017
:102A3000CCF904E08A2000E08120FFF7FBFE0020B3
:102A400004B070BDF8B50D4600206946344C0880CE
:102A500006462179180A884246D1E1882A8820460C
:102A6000007AC91C8A4228D129896A461180002926
:102A700002D0012902D01EE0002919D00421084308
:102A800020722888022101F0AFFDE87900282BD0C0
:102A90002548218804231822C01E01F0D9FC0746CE
:102AA000207901F0BFFD388068460088788018E002
:102AB000FB210840E4E7802616E08007FBD5297A51
:102AC0006846017000880128F5D117482188022343
:102AD0001822801E01F0BCFC0746207901F0A2FDFF
:102AE0003880384601F0C6FC29882079324601F04A
:102AF00093FD0020F8BD10B50878122802D148785F
:102B0000FFF798FE002010BD10B5054A180A12798B
:102B1000904202D10888FFF7D6FE002010BD0000C9
:102B2000527F0020884D00200860000010B50C2165
:102B3000254801F03BFD2549102001F03DFD002115
:102B4000102001F031FC10BD70B506461E480D4640
:102B500014460188042310221D4801F079FC0480EA
:102B60008670C57001F086FC70BD7CB5164C0646BB
:102B7000E088002101F02CFD2089002802D00021EE
:102B800001F026FD6089002802D0002101F020FD1F
:102B90000F48218804231022401E01F059FC0546ED
:102BA000E0886A46801C80B201A901F029FD2E80D0
:102BB00000980078A870284601F05CFC01211020E4
:102BC00001F0F2FB7CBD00005E7F0020E04E0020A3
:102BD00002400000FFB5654C83B01020608064485F
:102BE00016460F4600230092019003221946A01DAD
:102BF00001F0E8FC0546E088002101F0E9FC3878A6
:102C0000C0071CD05B4801900023204603221946D0
:102C10000096083001F0D6FC2089002101F0D8FC94
:102C200055480190002320460322194600960A3099
:102C300001F0C8FC05466089002101F0C9FC002DA7
:102C400003D10121102001F0AFFB012310224B48DA
:102C5000069901F0FDFB057001F00CFC002007B0A7
:102C6000F0BD70B5414C0D462380088801F0B6FCDC
:102C70002071FF2823D0A978E08801F0A9FCE08822
:102C8000EA1C801C80B2012101F0AEFC20890028E2
:102C900002D0A97801F09CFC6089002809D0801C32
:102CA00080B22A1D012101F09FFCA978608901F002
:102CB0008FFC0221102001F077FB002070BD012362
:102CC0009B035A1D8921294800F069F8F5E770B582
:102CD000264D0C462979180A884227D1E988208890
:102CE000891C884201D1012604E02989891C884277
:102CF0001CD1022622460832012101F075FCE07940
:102D0000002801D0022E03D00022012E0AD00DE0AF
:102D1000287901F087FC237A024631461846FFF7EE
:102D200013FF03E02188287901F076FC002070BDB4
:102D30001CB50E480C460279190A914214D1A178AB
:102D400013290ED016290CD0C0886A46801C80B288
:102D500001A901F055FC0098228800780121FFF7B5
:102D6000F3FE2088FFF701FF00201CBD5E7F0020DE
:102D70005C4E0020804E0020A44E00200440000045
:102D80000A7902704A7942700B8883701B0AC370FB
:102D90008A79027149884171090A81717047F8B5D1
:102DA00014460F461E4605464288018806232046E3
:102DB00001F04EFB0446287901F034FC2080277195
:102DC0006680204601F056FBF8BD70B51446428877
:102DD00000790D46010204233C480C3101F038FB18
:102DE000002D01D0132100E012210170448001F078
:102DF00041FB70BD0A880270120A42708A788270A4
:102E0000CA78C2700A7902714A79427189798171EE
:102E1000072070474278037812021A430A808278AA
:102E20008A70C278CA7002790A7142794A718079CF
:102E300088710720704710B5FFF7BCF8FFF71CFC3E
:102E4000FFF7EAFCFFF772FEFFF72CFA00F040F8FC
:102E500010BD70B5064615460C46152001F08CFADB
:102E6000022805D1E2B215232946304601F0ECFBD9
:102E7000102001F081FA022805D1E2B21023294680
:102E8000304601F0E1FB1C2001F076FA022805D162
:102E9000E2B21C232946304601F0D6FB182001F08F
:102EA0006BFA022805D1E2B218232946304601F018
:102EB000CBFB202001F060FA022805D1E2B22023EA
:102EC0002946304601F0C0FB70BD00000D30000007
:102ED00010B50A21264801F069FB2649402001F07F
:102EE0006BFB0021402001F05FFA10BDF8B5204DCA
:102EF0000E460746298804234022022001F0A8FA42
:102F00000446287901F08EFB2080A770E6702046E9
:102F100001F0B0FAF8BD7CB5154C0021E08801F055
:102F200057FB218802234022012001F091FA054637
:102F3000E08801AA801C80B2694601F061FB20791B
:102F400001F070FB2880284601F094FA012140200E
:102F500001F02AFA7CBD10B504460548012301881A
:102F60004022062001F074FA047001F083FA10BDCB
:102F70003C510020604F0020FFB589B00521C902F7
:102F800068468182C91C01828A4901838A4C40219A
:102F9000618002213C2500910422002301954021FB
:102FA000A01D01F057FB05005ED1A01D0125009575
:102FB0000190E08805AB0222102101F051FBE0886E
:102FC0007E4A102101F010FB03AF01970095E088C5
:102FD00004AB0222132101F043FB02AE092001964B
:102FE0000090E088764B1022012101F039FB7549F1
:102FF0006846007A48706846407A88700A46684693
:103000001321808901F0F0FA01970095E08804AB64
:103010000222132101F024FB6B4801960090E08806
:103020006A4B1022012101F01BFB69496846007AB6
:1030300048706846407A88700A466846132180893D
:1030400001F0D2FA0920019600900222E08806AB36
:10305000114601F005FB0546E088002101F0B8FAB1
:103060000121402001F0A0F90123402204200C9905
:1030700001F0EEF9057001F0FDF900200DB0F0BD92
:1030800038B50D46012069464B4C088023802888BE
:1030900001F0A4FA2071FF2816D0A978E08801F089
:1030A00097FAE088EA1C801C80B2012101F09CFAAA
:1030B000E0882A1D001D80B2012101F095FA68798F
:1030C0002072002807D009E00023072289213A480E
:1030D000FFF765FE0DE0002069460880E0886A463B
:1030E000401D80B2022101F07FFA0221402001F050
:1030F0005BF9002038BD10B52F4C8A1CE0880121F7
:10310000001D80B201F070FA207AC00706D0E08876
:103110000021001D82B22046FFF757FE002010BD9F
:10312000F8B5254D180A0C462B79002180229842CB
:103130002CD1EB8820889E1CB04200D1012127466B
:1031400008375B1D98420FD000290BD03A46012169
:1031500001F04AFAE079002817D0617A207AFFF767
:10316000C5FE12E0022911D1637A217A1E020E43B4
:1031700001D0012E0AD13A46022101F035FA287A0F
:10318000012E09D0400840002872002221882879A9
:1031900001F042FA0020F8BD01210843F4E710B520
:1031A0000549180A0979884201D1FFF7B4FE0020C9
:1031B00010BD0000022900003C510020304F0020CB
:1031C000404F00201051002001020000504F00200D
:1031D0002351002038B50124684604700C21394879
:1031E00001F0E4F9374D6946EC702A1D352001F0F5
:1031F0003DFA002800D02C7100F070FC32493220DA
:1032000001F0DAF90021322001F0CEF800F092F856
:1032100038BD10B500F03AFD10BD10B529480223A5
:1032200080783222010229480E3101F011F9012182
:1032300001701321417001F01DF910BD10B5044655
:1032400020482C2380783222010220480E31801E33
:1032500001F0FEF801462030047200224272084656
:1032600001F008F910BD10B5502332220D21184885
:1032700001F0EEF8044600F085FC204601F0FAF873
:103280000221322001F090F810BD114810B5012341
:1032900032220D210B3801F0DBF80221017001F020
:1032A000E9F810BD10B500F018FD10BD094B10B5C0
:1032B0009A4201D91A4602E0002A00D1012201F007
:1032C000DBF910BD6C7F0020B84F002004380000EF
:1032D0000E3400003075000010B501F0D3F9254917
:1032E00001F01AF82448081810BDF8B5234D064619
:1032F000A876002401F0C6F92919641CE4B2087408
:10330000082CF7D300241027381BB04201DD002021
:1033100007E001F0B7F9C117090E0918090A0902F7
:10332000401A2855641CE4B2102CEDD301F0AAF920
:103330002883F8BD10B52421104801F037F900F0BA
:10334000DEFB10BD10B50E48022380783222010248
:103350000C480E3101F07CF80D2101700749203135
:103360008978417001F086F80321322001F01CF8C1
:1033700010BD0000A0BB0D00A0860100787F0020DA
:103380006C7F00201A38000010B5084609781C46EA
:103390000B0000F0F7FF08051E1E1E0816191C1E64
:1033A00000F0C9FC15E04178012902D0022903D0C0
:1033B0000FE000F0D8FC0CE01146204600F03AFD8A
:1033C00007E000F0EEFC04E000F0ECFC01E000F0AF
:1033D00006FD002010BD10B50878304C801E03009B
:1033E00000F0D0FF020214188878A070C0070AD03D
:1033F0002B492A4A4879203AD07628480622001FCD
:10340000891D00F083FF00F010FD03E0FFF705FFCA
:103410000020A070002010BDF8B518460D460146EA
:103420001223204801F014F80446284600F0FEFC60
:103430000027002821D0194EB078C0071DD0304693
:103440000822A91C103801F051F8002815D1304687
:103450002038018B2A8891420FD101212170807E72
:103460006074314610222039601C00F04FFFB078A4
:10347000FFF7E4FE00F0DDFC00E02770204600F0DE
:10348000F9FF2078002801D1FFF7C7FE0020F8BD22
:1034900010B500F0CDFC002010BD0000987F00208A
:1034A0006C7F00201838000010B5104600F064FF53
:1034B000002809D1012332220D213D4800F0C8FF28
:1034C0000121017000F0D6FF002010BD70B5087812
:1034D000154603281BD002DC012825D104E00E2864
:1034E0001BD00F2820D11CE0487800281CD1304880
:1034F000222332220D21801C00F0AAFF044601463F
:10350000284600F0EBFB204600F0B4FF0CE04878C2
:10351000002809D100F0F6FB06E0487800F0FFFB38
:1035200002E0487800F002FC002070BD70B51C4637
:1035300010460D4600F020FF022805D11D49200A43
:103540008870284600F0DFFA002070BD70B508785A
:1035500015460C460A2810D1104600F00DFF04282D
:103560000BD16078002802D000F0B6FB05E0052101
:10357000284600F019FF00F0D1FB002070BD10B507
:10358000104600F06AFB002010BD10B510460C4636
:1035900000F0F2FE012808D12078002805D1FFF7BD
:1035A00038FE002801D000F0C2FB002010BD000052
:1035B000023400006C7F002010B52021032332224A
:1035C000880200F045FF01210170417000218170E7
:1035D00000F050FF10BD10B50220FDF7D3FE3949B1
:1035E000087010BD10B504463648C17002714371B1
:1035F0001C2332222021344800F02AFF33490123C2
:10360000098801808370C37000228280C2800472A6
:1036100042728472C2722E4C8481C281042404746A
:103620004274837400F026FF10BD10B5044626488E
:10363000042332222021C01C00F00AFF23490988FC
:10364000018000218170C47000F014FF10BD70B5BE
:103650000220FDF797FE1B4D04462878844202D0D5
:103660002046FFF7E2FF2C7070BD10B515490A2205
:10367000C88032211748FFF719FE10BD10B532215E
:10368000144800F085FE10BD10B50E490120887069
:1036900010480A223221401CFFF708FE10BD70B509
:1036A000084C00256570E078002803D06179207906
:1036B00001F03AF80748A5703221401C00F068FE7E
:1036C00070BD70479E7F0020028000006C7F00204C
:1036D000AD27000005C8000010B532220C460123BA
:1036E0001146900200F0B4FE2178017000F0C2FE95
:1036F000002010BD002070470020704710B506481C
:10370000114602880548FFF7D1FDFFF7A0FF002012
:1037100010BD002070470000A47F002005C80000F5
:10372000284A10725172704710B526480021417125
:10373000016001713221244800F02AFE10BD10B54D
:10374000102106233222880200F082FE0446FFF791
:10375000EBFF1E481B49008820800120A07088795B
:10376000E070C8792071204600F084FE10BD00B5DD
:1037700000221749030000F005FE030603060500BA
:103780000120087000BD0A7000BD10B5042332226C
:103790000121104800F05CFE0C49098801800021DD
:1037A000817000F067FE10BD10B501233222102198
:1037B000094800F04DFE0121017000F05BFE10BDD4
:1037C000AEE70000A87F002004C800006C7F002046
:1037D000D19000200F0400000340000010B51046F7
:1037E0000C4600F0C9FD012809D1322201231146FF
:1037F000900200F02DFE2178017000F03BFE0020C9
:1038000010BD20480A880088904202D188781E495D
:1038100088710020704710B50A781B48002A01D033
:10382000002105E0174A4B8812889A4201D1097994
:10383000C171FFF784FF002010BD10B58878002803
:1038400002D0FFF794FF01E0FFF76EFF002010BDEC
:1038500070B50D4C154621462279087A497A002A1E
:1038600003D000F083FF002002E000F05DFF0120A4
:1038700020712088294682B2044800F0FDFE002015
:1038800070BD00006C7F0020A87F002004C80000ED
:10389000704710B51C2102233222880200F0D8FDA7
:1038A0006321018000F0E6FD10BD10B5044604233D
:1038B00032221C21054800F0CBFD048001218170DB
:1038C0000021C17000F0D6FD10BD000003700000A3
:1038D000F8B510460E4600F04FFD012858D130785B
:1038E00000284BD12C4F0E2332221C21384600F0E9
:1038F000AFFD0446002020700B206070024627A117
:10390000A01C00F003FD204600F0B4FD0A23322283
:103910001C21384600F09CFD04460120207007253C
:1039200065702A4620A1A01C00F0F0FC204600F0A3
:10393000A1FD0B2332221C21384600F089FD0446EC
:103940000620207008206070024619A1A01C00F01B
:10395000DDFC204600F08EFD0A2332221C21384671
:1039600000F076FD04460520207065702A4613A1FC
:10397000A01C00F0CBFC204600F07CFD322201238D
:103980001146900200F064FD3178017000F072FD84
:103990000020F8BD0020704702700000444743201B
:1039A00054656368000000004A506C75732D780000
:1039B000123456FFFE9ABCDE00000000765F312E06
:1039C000302E310010B5062332224021002000F0B5
:1039D0003FFD0B490988018001218170C1700221DE
:1039E000017100F047FD10BD10B5012332224021C6
:1039F000032000F02DFD0021017000F03BFD10BD03
:103A00006C7F002010B510460C4600F0B5FC012874
:103A100009D1322201231146900200F019FD2178CC
:103A2000017000F027FD002010BD0020704770B528
:103A3000084D0C46E8888A1C801C80B2012100F0E9
:103A4000D3FDE888E21C001D80B2012100F0CCFD0E
:103A5000002070BD3C51002010B5044604233222E2
:103A60004021052000F0F4FC847000F003FD10BD3F
:103A700010B5FC48FDF752FC0321022000F044FE83
:103A8000002805D00023012219465004FDF712FC3E
:103A900010BD10B5F4484079002801D0FFF744FE6E
:103AA0000321022000F030FE05200007808A400735
:103AB00011D5FCF73CFF00280DD0FCF7D7FEEB48F2
:103AC0008168012211438160FCF72DFF0022322121
:103AD000E74800F09BFDFFF7CBFF10BD10B50021BC
:103AE0000120FFF71DFEE049FF208871FFF773FDFD
:103AF000FFF7CEFEFEF790FEFEF75CFA10BDDD4844
:103B000001218170704770B5DB4C0546A078FF2815
:103B10002CD0FFF714FED94802230022012100789F
:103B2000FFF760FD6420FFF7A0FD2088FFF7BDFED2
:103B300000F0CFF900F054FAFFF744FF05213220DE
:103B400000F032FC28882080687A607129460622BD
:103B50000A31A01D00F0DAFBC6488078FFF76EFB43
:103B6000C3483221401E00F013FC01E0FFF77BFB4D
:103B7000012000F047FABE480A223221C01F00F09F
:103B80007BFD70BDF0B5044691B00E202070002082
:103B9000607019204001A081E0810720207401207D
:103BA00060741C20E074254622461F212035143203
:103BB00029741646511E0B2000F058FD002805D030
:103BC0000822E274AEA1304600F0A0FB224631325A
:103BD0001746511E0C2000F049FD002805D00A228E
:103BE0002A74AAA1384600F091FBE07C1A21081A39
:103BF00045B2002D2FDD3E206946087001AA022043
:103C000000F034FD002806D00B2268460270A2A105
:103C100001A800F03DFD6846007800281BD0A842AE
:103C200000D2054668460570E07C6D1C8555E27C37
:103C30002046092115301154E17C401C0B186846C0
:103C4000027801A9184600F061FB68460078E17C23
:103C5000801C0818E07411B0F0BD10B500F08CFBAA
:103C60000446FFF70BFD032C03D0052C01D0042CD8
:103C700001D1FFF7F8FA7E483221401C00F088FBA2
:103C80007B483221C01F00F083FB10BD70B57A4C19
:103C90000025E07807281CD2030000F073FB07160C
:103CA0000B05080E11141600FFF77EFD0DE0FFF75F
:103CB00083FC0AE0FFF7EDFD07E000F01BF904E0EC
:103CC000FFF792FE01E000F07FF9E078401CE07021
:103CD00000E00125284670BD70477047032008703A
:103CE0000A20487000204882087548751722CA8249
:103CF00008220A8310224A8388836422CA832031DF
:103D00000870704710B50121322000F04DFBFFF71D
:103D100080FA002801D0FFF7A6FA10BD704754487A
:103D200010B53221401E00F033FB10BD704710B5B6
:103D3000FFF799FA10BD10B51E2332220E21594803
:103D400000F086FB0121017041700022C270102337
:103D50004371032383700171027204228271C17165
:103D600000F088FB10BD70B51E2332220E214D4895
:103D700000F06EFB0446FFF7AFFA05460420207002
:103D8000012060701021A01C00F010FC280E607152
:103D9000280C2071280AE070A570204600F06AFB0C
:103DA00070BD704770B505461E2332220E213D4876
:103DB00000F04EFB04466878FFF797FA0620207063
:103DC000012060701021A01C00F0F0FB062236A13B
:103DD000A01C00F09BFA204600F04CFB70BD70B5B3
:103DE00005461E2332220E212E4800F031FB0446E8
:103DF0006878FFF77AFA072020701E49012060706A
:103E00002039887E2077088B608220460822103176
:103E1000143000F07BFA174910222039A01C00F062
:103E200075FA204600F026FB70BD704701207047F0
:103E300070477047704710B5FFF727FA0C4C3221D6
:103E4000641E204600F0A4FAFCF72AFDFCF767FD8B
:103E5000FFF70EFE164A32212046FFF727FA002010
:103E600010BD0000933A0020A87F002000330050CE
:103E700008C80000987F00206C7F00209E7F0020F3
:103E800007030318021804180000000009FF00606F
:103E900052572D424C4500004441313435383020D2
:103EA0005058520014380000ABAB455523010000B8
:103EB000B80B000010B5104600F05EFA022801D1E0
:103EC000FFF7D1F9FCF74FFEFCF736FE0020C7E7FD
:103ED000704710B5152104233222880200F0B8FA89
:103EE0003221018002490988418000F0C3FA10BDE7
:103EF0006C7F002010B50223322215212D4800F0DE
:103F0000A7FA00F0B7FA10BD10B5104600F034FA69
:103F1000012809D1322201231146900200F098FABB
:103F20000021017000F0A6FA002010BD00207047AB
:103F300021490120087000207047002070470020B0
:103F400070471C4810B5062332221521001F00F0CF
:103F50007FFA1A4C2188018061884180A188818084
:103F600000F088FA2088401E20806088401E608013
:103F7000A088401EA08010BD10B5FFF7E2FF0A2206
:103F800032210F4800F078FB002010BD0020704760
:103F9000084810B5062332221521001F00F058FAF8
:103FA00008490A8802804A8842808988818000F016
:103FB00061FA10BD06540000D19000203651002057
:103FC00001C80000D290002010B501233222182130
:103FD000184800F03DFA0121017000F04BFA10BDC5
:103FE00010B5182108233222880200F031FA124954
:103FF0000988018001218170C1708180817100F088
:1040000039FA10BD10B504460A481023322218218F
:10401000001F00F01DFA08490122098801800021D3
:104020008170C270818084810221C18100F022FAF6
:1040300010BD0000076000006C7F0020322210B528
:1040400001231146900200F003FA0021017000F0F4
:1040500011FA002010BD08B50020034603220146D6
:1040600000901202022000F025FB08BD70B5024648
:104070004A40D50F40004A00ED074008520800288A
:1040800014D0002A12D0C40DD30D41020120C00566
:104090005202490A520AE41A091812187D34914250
:1040A00001D3641C00E04900002C01DA002070BD3F
:1040B0000023914201D3891A034340084900002894
:1040C000F7D100290AD0914202D10121C90705E0A8
:1040D000914201D2012101E00121C943E005C0184C
:1040E000401900F047F870BD420005D04200120EA2
:1040F00052428A4201DB00207047C9050818704708
:1041000010B500229623114600F03CF810BD410086
:1041100040020122400AD205090E80187F2901DAE7
:1041200000207047962903DC9622511AC840704738
:1041300096398840704700004A0009030123090BA3
:104140001B051943094B10B5520D9A4201DA0020A4
:1041500010BD064B34339A4203DC9A1A00F09EFAE3
:1041600010BD03495118884010BD0000FF03000036
:10417000CDFBFFFF002904DA401C490001D14008B3
:104180004000704770B40024050C05D110240004D1
:1041900002D1002921D01124050E01D100020834DA
:1041A000050F01D10001241D850F01D18000A41C41
:1041B000002801DB4000641C002908D020252E1BAC
:1041C0000D46F540A14000D00121294308430106D6
:1041D0001B1B000ADB1D02D5002070BC7047DB05ED
:1041E000181880180029F8DA401C4900F5D170BC75
:1041F0004008400070470000064C0125064E05E0CF
:10420000E36807CC2B430C3C98471034B442F7D3F7
:10421000FCF71AF9F05000201051002003B40148B7
:10422000019001BD3968020003B40148019001BD4D
:104230002F2F030003B40148019001BD551B02005C
:1042400003B40148019001BD0F3B030003B40148D2
:10425000019001BDCF2B030003B40148019001BDC3
:10426000CB2C030003B40148019001BD099002006A
:1042700003B40148019001BD1F21020003B40148AD
:10428000019001BDC12D030003B40148019001BD9F
:104290000921030003B40148019001BDC92D0300A9
:1042A00003B40148019001BD2B69020003B4014829
:1042B000019001BDEB31030003B40148019001BD41
:1042C0003D32030003B40148019001BDD721030032
:1042D00003B40148019001BDA73A030003B40148AB
:1042E000019001BD938F020003B40148019001BD0C
:1042F000CD8C020003B40148019001BD418F020042
:1043000003B40148019001BD2768020003B40148CD
:10431000019001BD213B030003B40148019001BDA0
:10432000D33A030003B40148019001BDBF2202004B
:1043300003B40148019001BDEB26030003B401481A
:10434000019001BD3524030003B40148019001BD73
:104350002F22020003B40148019001BDDD200300BB
:1043600003B40148019001BD533B030003B401486D
:10437000019001BD9D20030003B40148019001BDDF
:10438000B326030003B40148019001BDFD3D0300C5
:1043900003B40148019001BDA528030003B40148FE
:1043A000019001BDD5AF020003B40148019001BDE9
:1043B0003126030003B40148019001BDA1A502000C
:1043C00003B40148019001BDE3A5020003B4014814
:1043D000019001BD87A8020003B40148019001BD0E
:1043E000A7A9020003B40148019001BD93AA0200ED
:1043F00003B40148019001BD95AB020003B401482C
:10440000019001BDF9AB020003B40148019001BD68
:1044100069AC020003B40148019001BD17AD020070
:1044200003B40148019001BD77AD020003B4014817
:10443000019001BDF1AD020003B40148019001BD3E
:1044400085AE020003B40148019001BD11AF020026
:1044500003B40148019001BDB123030003B4014836
:10446000019001BD49E5020003B40148019001BD7E
:10447000F9E3020003B40148019001BDE123030008
:1044800003B40148019001BD4BCD020003B40148C3
:10449000019001BD99D1020003B40148019001BD12
:1044A000ABD0020003B40148019001BD69D0020005
:1044B00003B40148019001BD77CF020003B4014865
:1044C000019001BD01CC020003B40148019001BD7F
:1044D00029CC020003B40148019001BD15D20200AD
:1044E00003B40148019001BD8DD2020003B401481C
:1044F000019001BD773B030003B40148019001BD69
:104500007920030003B40148019001BD2129030073
:1045100003B40148019001BDD990020003B40148E1
:10452000019001BDC768020003B40148019001BDBC
:104530000D2C030003B40148019001BDB9C702006E
:1045400003B40148019001BD893C030003B4014854
:10455000019001BD913B030003B40148019001BDEE
:10456000231D020003B40148019001BDC32C0300C8
:1045700003B40148019001BD652C030003B4014858
:10458000019001BDF793020003B40148019001BD01
:10459000DB2E030003B40148019001BD038D02002E
:1045A00003B40148019001BDCF8F020003B401485C
:1045B000019001BD533B030003B40148019001BDCC
:1045C0008725030003B40148019001BD459F020007
:1045D00003B40148019001BD7B9C020003B4014873
:1045E000019001BDB7E3020003B40148019001BD91
:1045F0006D9B020003B40148019001BD2B9B02009A
:1046000003B40148019001BDA59B020003B4014819
:10461000019001BD0D24030003B40148019001BDC8
:10462000F3AF020003B40148019001BDE3E30200CF
:1046300003B40148019001BD739B020003B401481B
:10464000019001BD299C020003B40148019001BD05
:1046500095E3020003B40148019001BD9598020062
:1046600003B40148019001BD9599020003B40148CB
:10467000019001BDD129030003B40148019001BD9F
:104680002528030003B40148019001BDFD3A030051
:1046900003B40148019001BD213B030003B401486C
:1046A000019001BDAD3D030003B40148019001BD7F
:1046B0008D3D0300FFB581B00C4605460A461F46F6
:1046C000012000210A9EFFF7EFFF2A01FFF7ECFF10
:1046D0000C4B1A685B6810401940084300D100BEBB
:1046E000002E2146284602D000F01EF801E000F01E
:1046F0003DF83B4621462846039A00F059F805B09C
:10470000F0BD000028900020032800D10420054AB5
:1047100040018018008801228A40104000D001200A
:10472000704700000030005070B504460D460A4640
:1047300001200021FFF7B8FF2201FFF7B5FF094A6A
:104740001368526818401140084300D100BE032C82
:1047500000D104240449600140180121A94041808E
:1047600070BD0000289000200030005070B5044655
:104770000D460A4601200021FFF796FF2201FFF7B0
:1047800093FF094A1368526818401140084300D14A
:1047900000BE032C00D1042404496001401801210B
:1047A000A940818070BD000028900020003000509A
:1047B000F8B5164604460D460A461F46012000215C
:1047C000FFF772FF2201FFF76FFF094B1A685B6862
:1047D00010401940084300D100BE032C00D104242E
:1047E000044960014018690008183E43C680F8BDBE
:1047F0002890002000300050FEB50020214E0346D6
:1048000028220021424392198C00491C13510A2985
:10481000FADB401C0428F3DBFCF7B4F8194800224B
:104820000838026042601546002417486900475A5C
:104830000120A04080B207421CD028206843801984
:10484000A1004058411C19D0002810D0C1172246A1
:10485000FFF72AFF2A01FFF727FF0A4B083B1A68D8
:104860005B681043074A1943083A10605160641CA2
:104870000A2CDDDB6D1C042DD6DBFEBD00950194FA
:1048800000BEE3E7309000206E49002002E008C837
:10489000121F08C1002AFAD170477047002001E0BA
:1048A00001C1121F002AFBD17047000004490A68A9
:1048B000800792089200800F02430A607047000050
:1048C0000400005004490A680823C0079A43000FF7
:1048D00002430A607047000004000050024801686B
:1048E00001221143016070470034005010B508499F
:1048F0000A68C30752085200DB0F1A430A600128F6
:1049000002D0FBF7CDFF10BDFBF7B0FF10BD0000DC
:104910001034005004490A680423C0079A43400F2A
:1049200002430A60704700001034005004490A68CE
:104930000223C0079A43800F02430A6070470000B9
:1049400010340050C9040020B9160020A51700201B
:1049500063180020911800200101000A04280A04AD
:104960000203AA0055032A00A001FFFF2C01FF004B
:104970003F00FF03FF010000604B0020784B002048
:104980002C7F002003000100A0FF060000A1FF0A09
:104990000000A2FF1A0000A3FF1A0000A4FF1A00E3
:1049A00000A5FF0A0000A6FF0A0000A7FF456E61F0
:1049B000626C6520616363656C00416363656C20B4
:1049C00072616E676500582D636F6F7264696E6106
:1049D000746500592D636F6F7264696E6174650050
:1049E0005A2D636F6F7264696E61746500446973F8
:1049F000706C6179204C696E652031004469737078
:104A00006C6179204C696E6520320000002801003D
:104A1000020002008849002003280100050005006B
:104A20008A490020A1FF09000100000000000000E9
:104A3000012901000C000C00AD49002003280100F1
:104A4000050005008F490020A1FF090001000000BA
:104A500000000000012901000B000B00BA490020F2
:104A6000032801000500050094490020A3FF090266
:104A700002000000000000000229090002000000FE
:104A800000000000012901000C000C00C6490020B4
:104A9000032801000500050099490020A4FF090230
:104AA00002000000000000000229090002000000CE
:104AB00000000000012901000C000C00D349002077
:104AC00003280100050005009E490020A5FF0902FA
:104AD000020000000000000002290900020000009E
:104AE00000000000012901000C000C00E04900203A
:104AF0000328010005000500A3490020A1FF0900CB
:104B00001100000000000000012901000E000E004D
:104B1000ED4900200328010005000500A8490020F8
:104B2000A1FF0900110000000000000001290100A0
:104B30000E000E00FC49002006540000D91F002082
:104B4000005400002720002001540000AD20002068
:104B500002540000BB2000200E300000EF20002097
:104B6000384B002001000000404B002001000000F5
:104B7000484B00200300000000000000000000007F
:104B80000028010002000200BC4B002003280100A5
:104B900005000500BE4B0020192A0100010000009D
:104BA00000000000022909000200000000000000CF
:104BB0000429010008000000000000000F18020096
:104BC00000192A00044C00201C4C00203C7F0020CF
:104BD0000300010000800000652300200280000027
:104BE0004724002005800000232500200E3000000F
:104BF00083250020003000004126002003380000FB
:104C000053260020D44B002001000000DC4B002084
:104C100001000000E44B002003000000FC4B0020DA
:104C2000010000000028010002000200084D0020E1
:104C300003280100050005000A4D0020292A010073
:104C4000120000000000000003280100050005001C
:104C50000F4D0020242A0100120000000000000077
:104C60000328010005000500144D0020252A01003D
:104C700012000000000000000328010005000500EC
:104C8000194D0020272A010012000000000000003A
:104C900003280100050005001E4D0020262A010002
:104CA00012000000000000000328010005000500BC
:104CB000234D0020282A01001200000000000000FF
:104CC0000328010005000500284D0020232A0100CB
:104CD0000800000000000000032801000500050096
:104CE0002D4D00202A2A01001200000000000000C3
:104CF0000328010005000500324D0020502A010064
:104D000007000000000000000A18020000292A0223
:104D10000100242A020200252A020300272A020495
:104D200000262A020500282A020600232A0207007C
:104D30002A2A020800502A00684D0020804D0020D9
:104D4000507F002003000100007000001D2700209C
:104D5000027000007327002003700000BD270020B0
:104D600003380000F7270020484D00200100000014
:104D7000504D002002000000000000000000000074
:104D8000604D002001000000002801000200020028
:104D9000E84D00200328010005000500EA4D002031
:104DA000372A01020D00000000000000022909005E
:104DB00002000000000000000328010005000500BB
:104DC000EF4D0020382A0100010000000000000023
:104DD0000328010005000500F44D0020392A0800D1
:104DE00001000000000000000D18120000372A0228
:104DF0000000382A080000392A0000003C4E00203C
:104E0000544E00205C7F002003000100076000007A
:104E100011290020006000007729002003600000B5
:104E2000F12900200E300000452A0020003000004B
:104E3000F72A002003380000092B00200C4E002028
:104E400001000000144E0020010000001C4E002054
:104E500003000000344E0020010000000028010083
:104E600002000200C84E00200328010005000500D2
:104E7000CA4E0020062A09000100000000000000C0
:104E80000028010002000200D04E0020032801008B
:104E900005000500D24E0020062A0800010000008F
:104EA000000000000028010002000200D84E00208F
:104EB0000328010005000500DA4E0020072A010042
:104EC000010000000000000003180A0000062A008C
:104ED0000218040000062A000418020000072A0035
:104EE000104F0020284F00206A7F0020030001009F
:104EF00003400000D52B002000400000632C002060
:104F00000E300000CF2C002003380000312D00208F
:104F1000F04E002001000000F84E002001000000CB
:104F2000004F002001000000084F00200100000099
:104F3000FB349B5F8000008000100000FF550000E4
:104F4000FB349B5F8000008000100000F133000004
:104F5000FB349B5F8000008000100000F2330000F3
:104F6000984F0020B04F0020465100200300010060
:104F700003000000792F0020000000008130002095
:104F80000E3000002131002005000000F730002025
:104F9000033800009F310020704F00200100000006
:104FA000784F002001000000804F00200200000028
:104FB000904F00200100000000000000E850002099
:104FC0009C7F00200600010001340000A93400206D
:104FD00000340000CD340020003800004D350020A2
:104FE000013800002D350020033800007F350020F7
:104FF00000C800008B3500201338000089330020E2
:1050000015380000D733002017380000193400206D
:10501000193800009134002001700000D1380020C0
:10502000047000009539002003540000313F002037
:10503000045400003B3F0020055400003F3F002087
:1050400001C80000793F002002C800008D3F002009
:1050500007540000093F002003C800002D3F002036
:10506000024000003B38002004C8000051380020F6
:1050700004400000DD37002001400000033800201C
:105080000F0400001738002001800000D9360020EE
:1050900006800000F536002007800000F936002069
:1050A00005C80000FD36002006C8000013370020A8
:1050B00007C80000373E002008C80000B53E0020A9
:1050C00004000000053A0020010000002B3A0020F7
:1050D000020000002F3A0020086000003D40002040
:1050E00009C8000057400020C84F002024000000DD
:1050F00048510020007F0020BC0000009C48002098
:105100004851002020900020B80000009C4800205A
:105110001A0000FB349B5F8000008000100000F14B
:105120003300001A0000FB349B5F800000800010F9
:105130000000F233000034122301120000000000CE
:08514000000000000000000067
:040000052000044192
:00000001FF
